{
  "address": "0x9D30e52C1290Ee3348be1487127156a1136A57C7",
  "abi": [
    {
      "anonymous": false,
      "inputs": [
        {
          "indexed": false,
          "internalType": "address",
          "name": "previousAdmin",
          "type": "address"
        },
        {
          "indexed": false,
          "internalType": "address",
          "name": "newAdmin",
          "type": "address"
        }
      ],
      "name": "AdminChanged",
      "type": "event"
    },
    {
      "anonymous": false,
      "inputs": [
        {
          "indexed": false,
          "internalType": "address",
          "name": "by",
          "type": "address"
        },
        {
          "indexed": true,
          "internalType": "address",
          "name": "tokenAddress",
          "type": "address"
        },
        {
          "indexed": true,
          "internalType": "uint256",
          "name": "tokenId",
          "type": "uint256"
        },
        {
          "indexed": true,
          "internalType": "uint16",
          "name": "hiveId",
          "type": "uint16"
        },
        {
          "indexed": false,
          "internalType": "uint16",
          "name": "category",
          "type": "uint16"
        },
        {
          "indexed": false,
          "internalType": "uint256",
          "name": "timestamp",
          "type": "uint256"
        }
      ],
      "name": "AssetLinked",
      "type": "event"
    },
    {
      "anonymous": false,
      "inputs": [
        {
          "indexed": false,
          "internalType": "address",
          "name": "by",
          "type": "address"
        },
        {
          "indexed": true,
          "internalType": "address",
          "name": "tokenAddress",
          "type": "address"
        },
        {
          "indexed": true,
          "internalType": "uint256",
          "name": "tokenId",
          "type": "uint256"
        },
        {
          "indexed": true,
          "internalType": "uint16",
          "name": "hiveId",
          "type": "uint16"
        },
        {
          "indexed": false,
          "internalType": "uint16",
          "name": "category",
          "type": "uint16"
        },
        {
          "indexed": false,
          "internalType": "uint256",
          "name": "timestamp",
          "type": "uint256"
        }
      ],
      "name": "AssetUnlinked",
      "type": "event"
    },
    {
      "anonymous": false,
      "inputs": [
        {
          "indexed": true,
          "internalType": "address",
          "name": "beacon",
          "type": "address"
        }
      ],
      "name": "BeaconUpgraded",
      "type": "event"
    },
    {
      "anonymous": false,
      "inputs": [
        {
          "indexed": true,
          "internalType": "address",
          "name": "by",
          "type": "address"
        },
        {
          "indexed": true,
          "internalType": "uint256",
          "name": "categoryIndex",
          "type": "uint256"
        },
        {
          "indexed": false,
          "internalType": "string",
          "name": "category",
          "type": "string"
        },
        {
          "indexed": false,
          "internalType": "address",
          "name": "allowedCollection",
          "type": "address"
        }
      ],
      "name": "CategoryAdded",
      "type": "event"
    },
    {
      "anonymous": false,
      "inputs": [
        {
          "indexed": true,
          "internalType": "address",
          "name": "by",
          "type": "address"
        },
        {
          "indexed": true,
          "internalType": "address",
          "name": "dptAddress",
          "type": "address"
        },
        {
          "indexed": true,
          "internalType": "uint256",
          "name": "dptId",
          "type": "uint256"
        },
        {
          "indexed": false,
          "internalType": "uint256",
          "name": "timestamp",
          "type": "uint256"
        }
      ],
      "name": "DPTRegistered",
      "type": "event"
    },
    {
      "anonymous": false,
      "inputs": [
        {
          "indexed": true,
          "internalType": "address",
          "name": "by",
          "type": "address"
        },
        {
          "indexed": true,
          "internalType": "uint256",
          "name": "hiveId",
          "type": "uint256"
        },
        {
          "indexed": false,
          "internalType": "address",
          "name": "tokenAddress",
          "type": "address"
        },
        {
          "indexed": true,
          "internalType": "uint256",
          "name": "tokenId",
          "type": "uint256"
        },
        {
          "indexed": false,
          "internalType": "uint256",
          "name": "timestamp",
          "type": "uint256"
        }
      ],
      "name": "HiveCreated",
      "type": "event"
    },
    {
      "anonymous": false,
      "inputs": [
        {
          "indexed": true,
          "internalType": "address",
          "name": "by",
          "type": "address"
        },
        {
          "indexed": true,
          "internalType": "uint256",
          "name": "hiveId",
          "type": "uint256"
        },
        {
          "indexed": true,
          "internalType": "address",
          "name": "tokenAddress",
          "type": "address"
        }
      ],
      "name": "HiveTokenUpdated",
      "type": "event"
    },
    {
      "anonymous": false,
      "inputs": [
        {
          "indexed": true,
          "internalType": "address",
          "name": "by",
          "type": "address"
        },
        {
          "indexed": true,
          "internalType": "uint256",
          "name": "hiveId",
          "type": "uint256"
        },
        {
          "indexed": false,
          "internalType": "string",
          "name": "hiveURI",
          "type": "string"
        }
      ],
      "name": "HiveUriUpdated",
      "type": "event"
    },
    {
      "anonymous": false,
      "inputs": [
        {
          "indexed": true,
          "internalType": "address",
          "name": "issuer",
          "type": "address"
        },
        {
          "indexed": false,
          "internalType": "uint256",
          "name": "nonce",
          "type": "uint256"
        }
      ],
      "name": "NonceUsed",
      "type": "event"
    },
    {
      "anonymous": false,
      "inputs": [
        {
          "indexed": true,
          "internalType": "address",
          "name": "by",
          "type": "address"
        },
        {
          "indexed": false,
          "internalType": "uint256",
          "name": "podId",
          "type": "uint256"
        }
      ],
      "name": "PodDelisted",
      "type": "event"
    },
    {
      "anonymous": false,
      "inputs": [
        {
          "indexed": true,
          "internalType": "address",
          "name": "by",
          "type": "address"
        },
        {
          "indexed": false,
          "internalType": "uint256",
          "name": "podId",
          "type": "uint256"
        }
      ],
      "name": "PodWhitelisted",
      "type": "event"
    },
    {
      "anonymous": false,
      "inputs": [
        {
          "indexed": true,
          "internalType": "address",
          "name": "operator",
          "type": "address"
        },
        {
          "indexed": false,
          "internalType": "uint256",
          "name": "requested",
          "type": "uint256"
        },
        {
          "indexed": false,
          "internalType": "uint256",
          "name": "assigned",
          "type": "uint256"
        }
      ],
      "name": "RoleUpdated",
      "type": "event"
    },
    {
      "anonymous": false,
      "inputs": [
        {
          "indexed": true,
          "internalType": "address",
          "name": "implementation",
          "type": "address"
        }
      ],
      "name": "Upgraded",
      "type": "event"
    },
    {
      "inputs": [],
      "name": "FEATURE_ALLOW_ASSET_LINKING",
      "outputs": [
        {
          "internalType": "uint32",
          "name": "",
          "type": "uint32"
        }
      ],
      "stateMutability": "view",
      "type": "function"
    },
    {
      "inputs": [],
      "name": "FEATURE_ALLOW_ASSET_UNLINKING",
      "outputs": [
        {
          "internalType": "uint32",
          "name": "",
          "type": "uint32"
        }
      ],
      "stateMutability": "view",
      "type": "function"
    },
    {
      "inputs": [],
      "name": "FEATURE_ALLOW_HIVE_CREATION",
      "outputs": [
        {
          "internalType": "uint32",
          "name": "",
          "type": "uint32"
        }
      ],
      "stateMutability": "view",
      "type": "function"
    },
    {
      "inputs": [],
      "name": "ROLE_ACCESS_MANAGER",
      "outputs": [
        {
          "internalType": "uint256",
          "name": "",
          "type": "uint256"
        }
      ],
      "stateMutability": "view",
      "type": "function"
    },
    {
      "inputs": [],
      "name": "ROLE_CATEGORY_MANAGER",
      "outputs": [
        {
          "internalType": "uint32",
          "name": "",
          "type": "uint32"
        }
      ],
      "stateMutability": "view",
      "type": "function"
    },
    {
      "inputs": [],
      "name": "ROLE_DPT_REGISTRAR",
      "outputs": [
        {
          "internalType": "uint32",
          "name": "",
          "type": "uint32"
        }
      ],
      "stateMutability": "view",
      "type": "function"
    },
    {
      "inputs": [],
      "name": "ROLE_HIVE_TOKEN_MANAGER",
      "outputs": [
        {
          "internalType": "uint32",
          "name": "",
          "type": "uint32"
        }
      ],
      "stateMutability": "view",
      "type": "function"
    },
    {
      "inputs": [],
      "name": "ROLE_POD_WHITELIST_MANAGER",
      "outputs": [
        {
          "internalType": "uint32",
          "name": "",
          "type": "uint32"
        }
      ],
      "stateMutability": "view",
      "type": "function"
    },
    {
      "inputs": [],
      "name": "ROLE_UPGRADE_MANAGER",
      "outputs": [
        {
          "internalType": "uint256",
          "name": "",
          "type": "uint256"
        }
      ],
      "stateMutability": "view",
      "type": "function"
    },
    {
      "inputs": [
        {
          "internalType": "string",
          "name": "_categoryName",
          "type": "string"
        },
        {
          "internalType": "address",
          "name": "_allowedCollection",
          "type": "address"
        }
      ],
      "name": "addCategory",
      "outputs": [],
      "stateMutability": "nonpayable",
      "type": "function"
    },
    {
      "inputs": [
        {
          "internalType": "uint256",
          "name": "",
          "type": "uint256"
        },
        {
          "internalType": "uint16",
          "name": "",
          "type": "uint16"
        },
        {
          "internalType": "uint256",
          "name": "",
          "type": "uint256"
        }
      ],
      "name": "assetCatalogue",
      "outputs": [
        {
          "internalType": "address",
          "name": "tokenAddress",
          "type": "address"
        },
        {
          "internalType": "uint256",
          "name": "tokenId",
          "type": "uint256"
        }
      ],
      "stateMutability": "view",
      "type": "function"
    },
    {
      "inputs": [
        {
          "internalType": "uint256",
          "name": "_podId",
          "type": "uint256"
        },
        {
          "internalType": "string",
          "name": "_hiveURI",
          "type": "string"
        }
      ],
      "name": "createHive",
      "outputs": [],
      "stateMutability": "nonpayable",
      "type": "function"
    },
    {
      "inputs": [
        {
          "internalType": "uint256[]",
          "name": "_pods",
          "type": "uint256[]"
        }
      ],
      "name": "delistPods",
      "outputs": [],
      "stateMutability": "nonpayable",
      "type": "function"
    },
    {
      "inputs": [
        {
          "components": [
            {
              "components": [
                {
                  "internalType": "address",
                  "name": "tokenAddress",
                  "type": "address"
                },
                {
                  "internalType": "uint256",
                  "name": "tokenId",
                  "type": "uint256"
                }
              ],
              "internalType": "struct TradeableShares.SharesSubject",
              "name": "asset",
              "type": "tuple"
            },
            {
              "internalType": "address",
              "name": "dptOwner",
              "type": "address"
            },
            {
              "internalType": "uint256",
              "name": "validFromTimestamp",
              "type": "uint256"
            },
            {
              "internalType": "uint256",
              "name": "expiresAtTimestamp",
              "type": "uint256"
            },
            {
              "internalType": "uint256",
              "name": "nonce",
              "type": "uint256"
            }
          ],
          "internalType": "struct HiveRegistry.RegisterAsDPTRequest",
          "name": "_req",
          "type": "tuple"
        },
        {
          "internalType": "bytes",
          "name": "_signature",
          "type": "bytes"
        }
      ],
      "name": "eip712RegisterAsDPT",
      "outputs": [],
      "stateMutability": "nonpayable",
      "type": "function"
    },
    {
      "inputs": [
        {
          "internalType": "address",
          "name": "_issuer",
          "type": "address"
        },
        {
          "internalType": "uint256",
          "name": "_nonce",
          "type": "uint256"
        }
      ],
      "name": "fastForwardTheNonce",
      "outputs": [],
      "stateMutability": "nonpayable",
      "type": "function"
    },
    {
      "inputs": [],
      "name": "features",
      "outputs": [
        {
          "internalType": "uint256",
          "name": "",
          "type": "uint256"
        }
      ],
      "stateMutability": "view",
      "type": "function"
    },
    {
      "inputs": [
        {
          "internalType": "string",
          "name": "_category",
          "type": "string"
        }
      ],
      "name": "getCategoryIndex",
      "outputs": [
        {
          "internalType": "uint16",
          "name": "categoryId",
          "type": "uint16"
        }
      ],
      "stateMutability": "view",
      "type": "function"
    },
    {
      "inputs": [
        {
          "internalType": "uint256",
          "name": "_hiveId",
          "type": "uint256"
        }
      ],
      "name": "getHiveCreatorPod",
      "outputs": [
        {
          "components": [
            {
              "internalType": "address",
              "name": "tokenAddress",
              "type": "address"
            },
            {
              "internalType": "uint256",
              "name": "tokenId",
              "type": "uint256"
            }
          ],
          "internalType": "struct TradeableShares.SharesSubject",
          "name": "pod",
          "type": "tuple"
        }
      ],
      "stateMutability": "view",
      "type": "function"
    },
    {
      "inputs": [
        {
          "internalType": "uint16",
          "name": "_hiveId",
          "type": "uint16"
        }
      ],
      "name": "getHiveDetails",
      "outputs": [
        {
          "components": [
            {
              "internalType": "address",
              "name": "tokenAddress",
              "type": "address"
            },
            {
              "internalType": "uint256",
              "name": "tokenId",
              "type": "uint256"
            }
          ],
          "internalType": "struct TradeableShares.SharesSubject",
          "name": "pod",
          "type": "tuple"
        },
        {
          "internalType": "address",
          "name": "hiveOwner",
          "type": "address"
        },
        {
          "internalType": "address",
          "name": "hiveTokenAddr",
          "type": "address"
        },
        {
          "internalType": "string",
          "name": "hiveUri",
          "type": "string"
        }
      ],
      "stateMutability": "view",
      "type": "function"
    },
    {
      "inputs": [
        {
          "internalType": "uint256",
          "name": "_podId",
          "type": "uint256"
        }
      ],
      "name": "getHiveId",
      "outputs": [
        {
          "internalType": "uint256",
          "name": "hiveId",
          "type": "uint256"
        }
      ],
      "stateMutability": "view",
      "type": "function"
    },
    {
      "inputs": [
        {
          "internalType": "uint256",
          "name": "_hiveId",
          "type": "uint256"
        }
      ],
      "name": "getHiveToken",
      "outputs": [
        {
          "internalType": "address",
          "name": "tokenAddr",
          "type": "address"
        }
      ],
      "stateMutability": "view",
      "type": "function"
    },
    {
      "inputs": [
        {
          "internalType": "uint16",
          "name": "_hiveId",
          "type": "uint16"
        }
      ],
      "name": "getHiveURI",
      "outputs": [
        {
          "internalType": "string",
          "name": "hiveUri",
          "type": "string"
        }
      ],
      "stateMutability": "view",
      "type": "function"
    },
    {
      "inputs": [],
      "name": "getImplementation",
      "outputs": [
        {
          "internalType": "address",
          "name": "",
          "type": "address"
        }
      ],
      "stateMutability": "view",
      "type": "function"
    },
    {
      "inputs": [
        {
          "components": [
            {
              "internalType": "address",
              "name": "tokenAddress",
              "type": "address"
            },
            {
              "internalType": "uint256",
              "name": "tokenId",
              "type": "uint256"
            }
          ],
          "internalType": "struct TradeableShares.SharesSubject",
          "name": "_asset",
          "type": "tuple"
        }
      ],
      "name": "getLinkedAssetDetails",
      "outputs": [
        {
          "internalType": "uint256",
          "name": "hiveId",
          "type": "uint256"
        },
        {
          "internalType": "uint256",
          "name": "categoryId",
          "type": "uint256"
        },
        {
          "internalType": "string",
          "name": "category",
          "type": "string"
        }
      ],
      "stateMutability": "view",
      "type": "function"
    },
    {
      "inputs": [
        {
          "internalType": "address",
          "name": "clientAddress",
          "type": "address"
        }
      ],
      "name": "getNonce",
      "outputs": [
        {
          "internalType": "uint256",
          "name": "nonce",
          "type": "uint256"
        }
      ],
      "stateMutability": "view",
      "type": "function"
    },
    {
      "inputs": [
        {
          "internalType": "uint16",
          "name": "_hiveId",
          "type": "uint16"
        }
      ],
      "name": "getNumOfAssetsLinkedWithHive",
      "outputs": [
        {
          "internalType": "uint256",
          "name": "numOfAssets",
          "type": "uint256"
        }
      ],
      "stateMutability": "view",
      "type": "function"
    },
    {
      "inputs": [
        {
          "internalType": "uint16",
          "name": "_hiveId",
          "type": "uint16"
        },
        {
          "internalType": "uint16",
          "name": "_category",
          "type": "uint16"
        }
      ],
      "name": "getNumOfAssetsLinkedWithHive",
      "outputs": [
        {
          "internalType": "uint256",
          "name": "numOfAssets",
          "type": "uint256"
        }
      ],
      "stateMutability": "view",
      "type": "function"
    },
    {
      "inputs": [],
      "name": "getNumOfGlobalCategories",
      "outputs": [
        {
          "internalType": "uint256",
          "name": "noOfCategories",
          "type": "uint256"
        }
      ],
      "stateMutability": "view",
      "type": "function"
    },
    {
      "inputs": [],
      "name": "getNumOfHives",
      "outputs": [
        {
          "internalType": "uint256",
          "name": "noOfHives",
          "type": "uint256"
        }
      ],
      "stateMutability": "view",
      "type": "function"
    },
    {
      "inputs": [
        {
          "internalType": "address",
          "name": "operator",
          "type": "address"
        }
      ],
      "name": "getRole",
      "outputs": [
        {
          "internalType": "uint256",
          "name": "",
          "type": "uint256"
        }
      ],
      "stateMutability": "view",
      "type": "function"
    },
    {
      "inputs": [
        {
          "internalType": "uint256",
          "name": "",
          "type": "uint256"
        }
      ],
      "name": "globalCategories",
      "outputs": [
        {
          "internalType": "string",
          "name": "category",
          "type": "string"
        },
        {
          "internalType": "address",
          "name": "allowedCollection",
          "type": "address"
        }
      ],
      "stateMutability": "view",
      "type": "function"
    },
    {
      "inputs": [],
      "name": "iNftContract",
      "outputs": [
        {
          "internalType": "address",
          "name": "",
          "type": "address"
        }
      ],
      "stateMutability": "view",
      "type": "function"
    },
    {
      "inputs": [
        {
          "components": [
            {
              "internalType": "address",
              "name": "tokenAddress",
              "type": "address"
            },
            {
              "internalType": "uint256",
              "name": "tokenId",
              "type": "uint256"
            }
          ],
          "internalType": "struct TradeableShares.SharesSubject",
          "name": "_asset",
          "type": "tuple"
        }
      ],
      "name": "isAssetLinked",
      "outputs": [
        {
          "internalType": "bool",
          "name": "status",
          "type": "bool"
        }
      ],
      "stateMutability": "view",
      "type": "function"
    },
    {
      "inputs": [
        {
          "components": [
            {
              "internalType": "address",
              "name": "tokenAddress",
              "type": "address"
            },
            {
              "internalType": "uint256",
              "name": "tokenId",
              "type": "uint256"
            }
          ],
          "internalType": "struct TradeableShares.SharesSubject",
          "name": "_dpt",
          "type": "tuple"
        }
      ],
      "name": "isDPTRegistered",
      "outputs": [
        {
          "internalType": "bool",
          "name": "status",
          "type": "bool"
        }
      ],
      "stateMutability": "view",
      "type": "function"
    },
    {
      "inputs": [
        {
          "internalType": "uint256",
          "name": "required",
          "type": "uint256"
        }
      ],
      "name": "isFeatureEnabled",
      "outputs": [
        {
          "internalType": "bool",
          "name": "",
          "type": "bool"
        }
      ],
      "stateMutability": "view",
      "type": "function"
    },
    {
      "inputs": [
        {
          "internalType": "address",
          "name": "operator",
          "type": "address"
        },
        {
          "internalType": "uint256",
          "name": "required",
          "type": "uint256"
        }
      ],
      "name": "isOperatorInRole",
      "outputs": [
        {
          "internalType": "bool",
          "name": "",
          "type": "bool"
        }
      ],
      "stateMutability": "view",
      "type": "function"
    },
    {
      "inputs": [
        {
          "internalType": "uint256",
          "name": "_podId",
          "type": "uint256"
        }
      ],
      "name": "isPodWhitelisted",
      "outputs": [
        {
          "internalType": "bool",
          "name": "status",
          "type": "bool"
        }
      ],
      "stateMutability": "view",
      "type": "function"
    },
    {
      "inputs": [
        {
          "internalType": "uint256",
          "name": "required",
          "type": "uint256"
        }
      ],
      "name": "isSenderInRole",
      "outputs": [
        {
          "internalType": "bool",
          "name": "",
          "type": "bool"
        }
      ],
      "stateMutability": "view",
      "type": "function"
    },
    {
      "inputs": [
        {
          "components": [
            {
              "internalType": "address",
              "name": "tokenAddress",
              "type": "address"
            },
            {
              "internalType": "uint256",
              "name": "tokenId",
              "type": "uint256"
            }
          ],
          "internalType": "struct TradeableShares.SharesSubject",
          "name": "_asset",
          "type": "tuple"
        },
        {
          "internalType": "uint16",
          "name": "_hiveId",
          "type": "uint16"
        },
        {
          "internalType": "string",
          "name": "_categoryName",
          "type": "string"
        }
      ],
      "name": "linkAsset",
      "outputs": [],
      "stateMutability": "nonpayable",
      "type": "function"
    },
    {
      "inputs": [
        {
          "components": [
            {
              "internalType": "address",
              "name": "tokenAddress",
              "type": "address"
            },
            {
              "internalType": "uint256",
              "name": "tokenId",
              "type": "uint256"
            }
          ],
          "internalType": "struct TradeableShares.SharesSubject",
          "name": "_asset",
          "type": "tuple"
        },
        {
          "internalType": "uint16",
          "name": "_hiveId",
          "type": "uint16"
        },
        {
          "internalType": "uint16",
          "name": "_categoryId",
          "type": "uint16"
        }
      ],
      "name": "linkAsset",
      "outputs": [],
      "stateMutability": "nonpayable",
      "type": "function"
    },
    {
      "inputs": [],
      "name": "personalityContract",
      "outputs": [
        {
          "internalType": "address",
          "name": "",
          "type": "address"
        }
      ],
      "stateMutability": "view",
      "type": "function"
    },
    {
      "inputs": [],
      "name": "podStakingContract",
      "outputs": [
        {
          "internalType": "address",
          "name": "",
          "type": "address"
        }
      ],
      "stateMutability": "view",
      "type": "function"
    },
    {
      "inputs": [
        {
          "internalType": "address",
          "name": "_personalityContract",
          "type": "address"
        },
        {
          "internalType": "address",
          "name": "_iNftContract",
          "type": "address"
        },
        {
          "internalType": "address",
          "name": "_podStakingContract",
          "type": "address"
        }
      ],
      "name": "postConstruct",
      "outputs": [],
      "stateMutability": "nonpayable",
      "type": "function"
    },
    {
      "inputs": [
        {
          "components": [
            {
              "internalType": "address",
              "name": "tokenAddress",
              "type": "address"
            },
            {
              "internalType": "uint256",
              "name": "tokenId",
              "type": "uint256"
            }
          ],
          "internalType": "struct TradeableShares.SharesSubject",
          "name": "_dpt",
          "type": "tuple"
        }
      ],
      "name": "registerAsDPT",
      "outputs": [],
      "stateMutability": "nonpayable",
      "type": "function"
    },
    {
      "inputs": [
        {
          "internalType": "uint256",
          "name": "_hiveId",
          "type": "uint256"
        },
        {
          "internalType": "address",
          "name": "_tokenAddress",
          "type": "address"
        }
      ],
      "name": "setHiveTokenAddress",
      "outputs": [],
      "stateMutability": "nonpayable",
      "type": "function"
    },
    {
      "inputs": [],
      "name": "totalNumOfAssetsLinked",
      "outputs": [
        {
          "internalType": "uint256",
          "name": "",
          "type": "uint256"
        }
      ],
      "stateMutability": "view",
      "type": "function"
    },
    {
      "inputs": [
        {
          "components": [
            {
              "internalType": "address",
              "name": "tokenAddress",
              "type": "address"
            },
            {
              "internalType": "uint256",
              "name": "tokenId",
              "type": "uint256"
            }
          ],
          "internalType": "struct TradeableShares.SharesSubject",
          "name": "_asset",
          "type": "tuple"
        }
      ],
      "name": "unlinkAsset",
      "outputs": [],
      "stateMutability": "nonpayable",
      "type": "function"
    },
    {
      "inputs": [
        {
          "internalType": "uint256",
          "name": "_mask",
          "type": "uint256"
        }
      ],
      "name": "updateFeatures",
      "outputs": [],
      "stateMutability": "nonpayable",
      "type": "function"
    },
    {
      "inputs": [
        {
          "internalType": "uint256",
          "name": "_hiveId",
          "type": "uint256"
        },
        {
          "internalType": "string",
          "name": "_hiveURI",
          "type": "string"
        }
      ],
      "name": "updateHiveURI",
      "outputs": [],
      "stateMutability": "nonpayable",
      "type": "function"
    },
    {
      "inputs": [
        {
          "internalType": "address",
          "name": "operator",
          "type": "address"
        },
        {
          "internalType": "uint256",
          "name": "role",
          "type": "uint256"
        }
      ],
      "name": "updateRole",
      "outputs": [],
      "stateMutability": "nonpayable",
      "type": "function"
    },
    {
      "inputs": [
        {
          "internalType": "address",
          "name": "newImplementation",
          "type": "address"
        }
      ],
      "name": "upgradeTo",
      "outputs": [],
      "stateMutability": "nonpayable",
      "type": "function"
    },
    {
      "inputs": [
        {
          "internalType": "address",
          "name": "newImplementation",
          "type": "address"
        },
        {
          "internalType": "bytes",
          "name": "data",
          "type": "bytes"
        }
      ],
      "name": "upgradeToAndCall",
      "outputs": [],
      "stateMutability": "payable",
      "type": "function"
    },
    {
      "inputs": [
        {
          "internalType": "uint256[]",
          "name": "_pods",
          "type": "uint256[]"
        }
      ],
      "name": "whitelistPods",
      "outputs": [],
      "stateMutability": "nonpayable",
      "type": "function"
    }
  ],
  "transactionHash": "0x52bb9d9e1c5a538a0cfb3d52a01803710be06944ed2809f683e588bb70291107",
  "args": [],
  "numDeployments": 1,
  "solcInputHash": "650f31576ff89dd751dbf507fd3152ca",
  "bytecode": "0x60a0604052306080523480156200001557600080fd5b50600054610100900460ff16620000335760005460ff16156200003d565b6200003d620000e2565b620000a55760405162461bcd60e51b815260206004820152602e60248201527f496e697469616c697a61626c653a20636f6e747261637420697320616c72656160448201526d191e481a5b9a5d1a585b1a5e995960921b606482015260840160405180910390fd5b600054610100900460ff16158015620000c8576000805461ffff19166101011790555b8015620000db576000805461ff00191690555b5062000106565b6000620000fa306200010060201b62002bf31760201c565b15905090565b3b151590565b6080516146c56200013760003960008181610c3e01528181610c7e015281816116c7015261170701526146c56000f3fe60806040526004361061031a5760003560e01c8063a472d0b6116101ab578063c688d693116100f7578063e068c12711610095578063f9bf90171161006f578063f9bf9017146109d8578063fa4c9ab414610a19578063fc999d0414610a2e578063fcc2c07814610a4e57600080fd5b8063e068c12714610978578063e480d61214610998578063f5a5ad11146109b857600080fd5b8063cd7e176d116100d1578063cd7e176d146108d9578063d26ef1ca14610908578063d5bb7f6714610938578063e023fd421461095857600080fd5b8063c688d69314610884578063c69f89fa146108a4578063caa4d8fe146108c457600080fd5b8063ae682e2e11610164578063bbd509241161013e578063bbd50924146107f7578063bea55b0414610817578063beb1aec01461084d578063c6179e581461086457600080fd5b8063ae682e2e146107aa578063af830362146107c2578063b00e97a0146107e257600080fd5b8063a472d0b6146106fa578063a580a7951461071a578063aa6699f214610748578063aaf10f421461075d578063ae5b102e14610772578063ae60bda41461079257600080fd5b8063442767331161026a578063725f36261161022357806380c6ddfa116101fd57806380c6ddfa1461066057806385335d191461068d5780639367b400146106ba5780639a1d7ce4146106da57600080fd5b8063725f36261461061457806375853002146106345780637efbf5b11461064957600080fd5b8063442767331461055e5780634db04542146105945780634e1aee8c146105b45780634f1ef286146105d457806359549dbb146105e7578063612f5cbb146105fe57600080fd5b80631c94a774116102d75780632d0335ab116102b15780632d0335ab146104c85780633659cfe6146104fe578063396ab56f1461051e5780633f562fcc1461053e57600080fd5b80631c94a774146104505780632176b89e146104705780632b5214161461049c57600080fd5b806308f7e9dc1461031f5780630dc3d2841461035c5780630e3163bc1461037c578063114247b8146103bc5780631604b2c6146103fb57806319a756271461042e575b600080fd5b34801561032b57600080fd5b5060cd5461033f906001600160a01b031681565b6040516001600160a01b0390911681526020015b60405180910390f35b34801561036857600080fd5b5060cc5461033f906001600160a01b031681565b34801561038857600080fd5b506103ac610397366004613a2e565b600090815260d0602052604090205460ff1690565b6040519015158152602001610353565b3480156103c857600080fd5b506103dc6103d7366004613a5e565b610a6e565b604080516001600160a01b039093168352602083019190915201610353565b34801561040757600080fd5b5061041b610416366004613b1f565b610ac2565b60405161ffff9091168152602001610353565b34801561043a57600080fd5b5061044e610449366004613bca565b610aee565b005b34801561045c57600080fd5b5061044e61046b366004613c41565b610b24565b34801561047c57600080fd5b506104876208000081565b60405163ffffffff9091168152602001610353565b3480156104a857600080fd5b50306000908152600160205260409020545b604051908152602001610353565b3480156104d457600080fd5b506104ba6104e3366004613c6d565b6001600160a01b0316600090815260cf602052604090205490565b34801561050a57600080fd5b5061044e610519366004613c6d565b610c34565b34801561052a57600080fd5b5061044e610539366004613c8a565b610cfc565b34801561054a57600080fd5b506103ac610559366004613c8a565b610d06565b34801561056a57600080fd5b506104ba610579366004613c6d565b6001600160a01b031660009081526001602052604090205490565b3480156105a057600080fd5b5061044e6105af366004613c8a565b610d3f565b3480156105c057600080fd5b5061044e6105cf366004613ca6565b6111c8565b61044e6105e2366004613cea565b6116bd565b3480156105f357600080fd5b506104876202000081565b34801561060a57600080fd5b506104ba60d95481565b34801561062057600080fd5b506103ac61062f366004613a2e565b611776565b34801561064057600080fd5b50610487600181565b34801561065557600080fd5b506104876204000081565b34801561066c57600080fd5b5061068061067b366004613d4e565b611798565b6040516103539190613dc1565b34801561069957600080fd5b506106ad6106a8366004613a2e565b61183f565b6040516103539190613dd4565b3480156106c657600080fd5b5061044e6106d5366004613df4565b6118cb565b3480156106e657600080fd5b5061044e6106f5366004613e40565b611a4f565b34801561070657600080fd5b5061044e610715366004613e82565b611b4e565b34801561072657600080fd5b5061073a610735366004613a2e565b611c63565b604051610353929190613ef7565b34801561075457600080fd5b50610487600481565b34801561076957600080fd5b5061033f611d28565b34801561077e57600080fd5b5061044e61078d366004613c41565b611d32565b34801561079e57600080fd5b506104ba600160fe1b81565b3480156107b657600080fd5b506104ba600160ff1b81565b3480156107ce57600080fd5b5061044e6107dd366004613e82565b611db4565b3480156107ee57600080fd5b506104ba611eca565b34801561080357600080fd5b5061044e610812366004613f21565b611edc565b34801561082357600080fd5b5061033f610832366004613a2e565b600090815260d260205260409020546001600160a01b031690565b34801561085957600080fd5b506104876201000081565b34801561087057600080fd5b5060cb5461033f906001600160a01b031681565b34801561089057600080fd5b506103ac61089f366004613c41565b611ff0565b3480156108b057600080fd5b5061044e6108bf366004613f51565b612019565b3480156108d057600080fd5b506104ba6121dd565b3480156108e557600080fd5b506108f96108f4366004613c8a565b6121ef565b60405161035393929190613fa8565b34801561091457600080fd5b50610928610923366004613d4e565b61234e565b6040516103539493929190613fc7565b34801561094457600080fd5b5061044e610953366004613a2e565b612569565b34801561096457600080fd5b5061044e610973366004614017565b612573565b34801561098457600080fd5b506103ac610993366004613c8a565b6127bb565b3480156109a457600080fd5b5061044e6109b3366004613df4565b6127ea565b3480156109c457600080fd5b506104ba6109d3366004613d4e565b612b58565b3480156109e457600080fd5b506104ba6109f3366004614057565b61ffff918216600090815260d76020908152604080832093909416825291909152205490565b348015610a2557600080fd5b50610487600281565b348015610a3a57600080fd5b506104ba610a49366004613a2e565b612bb3565b348015610a5a57600080fd5b506103ac610a69366004613a2e565b612be7565b60d76020528260005260406000206020528160005260406000208181548110610a9657600080fd5b6000918252602090912060029091020180546001909101546001600160a01b0390911693509150839050565b600060d682604051610ad4919061408a565b9081526040519081900360200190205461ffff1692915050565b610b1e848460d68585604051610b059291906140a6565b9081526040519081900360200190205461ffff166111c8565b50505050565b610b3062010000612be7565b610b555760405162461bcd60e51b8152600401610b4c906140b6565b60405180910390fd5b6001600160a01b038216600090815260cf60205260409020548111610bd25760405162461bcd60e51b815260206004820152602d60248201527f6e6577206e6f6e6365206d75737420626520626967676572207468616e20746860448201526c652063757272656e74206f6e6560981b6064820152608401610b4c565b6001600160a01b038216600081815260cf602052604090208290557f2af71f10069c28afc67c3752e87e0e4616a97948d33c8f404a856c0c334b3e01610c196001846140f3565b6040519081526020015b60405180910390a25050565b905090565b6001600160a01b037f0000000000000000000000000000000000000000000000000000000000000000163003610c7c5760405162461bcd60e51b8152600401610b4c9061410a565b7f00000000000000000000000000000000000000000000000000000000000000006001600160a01b0316610cae612bf9565b6001600160a01b031614610cd45760405162461bcd60e51b8152600401610b4c90614156565b610cdd81612c27565b60408051600080825260208201909252610cf991839190612c50565b50565b610cf98133612d9b565b600080610d23610d196020850185613c6d565b8460200135612ec6565b600090815260d8602052604090205461ffff1615159392505050565b610d496004611776565b610d955760405162461bcd60e51b815260206004820152601b60248201527f617373657420756e6c696e6b696e672069732064697361626c656400000000006044820152606401610b4c565b6000610db1610da76020840184613c6d565b8360200135612ec6565b600081815260d8602052604081205491925061ffff9091169003610e085760405162461bcd60e51b815260206004820152600e60248201526d1d5b9b1a5b9ad95908185cdcd95d60921b6044820152606401610b4c565b33610e166020840184613c6d565b6040516331a9108f60e11b8152602085013560048201526001600160a01b039190911690636352211e90602401602060405180830381865afa158015610e60573d6000803e3d6000fd5b505050506040513d601f19601f82011682018060405250810190610e8491906141a2565b6001600160a01b03161480610ef2575060cb546001600160a01b0316610ead6020840184613c6d565b6001600160a01b0316148015610ef25750610ed5610ed0368490038401846141bf565b612f04565b80610ef25750610ef2610eed368490038401846141bf565b61306c565b610f0e5760405162461bcd60e51b8152600401610b4c90614217565b600081815260d8602090815260408083208151606081018352905461ffff80821680845262010000830482168487019081526401000000009093046001600160e01b031684860152865260d7855283862091511685529092529091205460018111156110bf57815161ffff908116600090815260d760209081526040808320828701519094168352929052908120610fa76001846140f3565b81548110610fb757610fb761423f565b600091825260208083206040805180820190915260029093020180546001600160a01b0316808452600190910154918301829052919350610ff89190612ec6565b90508160d76000866000015161ffff1681526020019081526020016000206000866020015161ffff1661ffff16815260200190815260200160002085604001516001600160e01b0316815481106110515761105161423f565b60009182526020808320845160029093020180546001600160a01b039093166001600160a01b03199093169290921782559283015160019091015560408087015193825260d89092522080546001600160e01b039092166401000000000263ffffffff909216919091179055505b815161ffff908116600090815260d760209081526040808320828701519094168352929052208054806110f4576110f4614255565b6000828152602080822060026000199094019384020180546001600160a01b03191681556001018290559190925584825260d890526040812081905560d980549161113e8361426b565b9091555050815161ffff166020850180359061115a9087613c6d565b6001600160a01b03167ff85cbeffd83133831e57542e44c43d60c6afb97812c8775480ed300f62e369ec338660200151426040516111ba939291906001600160a01b0393909316835261ffff919091166020830152604082015260600190565b60405180910390a450505050565b6111d26002611776565b61121e5760405162461bcd60e51b815260206004820152601960248201527f6173736574206c696e6b696e672069732064697361626c6564000000000000006044820152606401610b4c565b3361122c6020850185613c6d565b6040516331a9108f60e11b8152602086013560048201526001600160a01b039190911690636352211e90602401602060405180830381865afa158015611276573d6000803e3d6000fd5b505050506040513d601f19601f8201168201806040525081019061129a91906141a2565b6001600160a01b031614806112fe575060cb546001600160a01b03166112c36020850185613c6d565b6001600160a01b03161480156112fe57506112e6610ed0368590038501856141bf565b806112fe57506112fe610eed368590038501856141bf565b61131a5760405162461bcd60e51b8152600401610b4c90614217565b60008261ffff161161133e5760405162461bcd60e51b8152600401610b4c90614282565b60008161ffff16118015611357575060d55461ffff8216105b6113965760405162461bcd60e51b815260206004820152601060248201526f696e76616c69642063617465676f727960801b6044820152606401610b4c565b60006001600160a01b031660d58261ffff16815481106113b8576113b861423f565b60009182526020909120600160029092020101546001600160a01b0316148061142857506113e96020840184613c6d565b6001600160a01b031660d58261ffff16815481106114095761140961423f565b60009182526020909120600160029092020101546001600160a01b0316145b61148b5760405162461bcd60e51b815260206004820152602e60248201527f6173736574206c696e6b696e67207265737472696374656420666f722073757060448201526d706c6965642063617465676f727960901b6064820152608401610b4c565b60006114a761149d6020860186613c6d565b8560200135612ec6565b600081815260d8602052604090205490915061ffff16156115015760405162461bcd60e51b8152602060048201526014602482015273185cdcd95d08185b1c9958591e481b1a5b9ad95960621b6044820152606401610b4c565b600081815260d360205260409020541561155d5760405162461bcd60e51b815260206004820152601d60248201527f6173736574206973206173736f636961746564207769746820686976650000006044820152606401610b4c565b60d9805490600061156d836142aa565b909155505061ffff808416600090815260d760209081526040808320938616835292815291812080546001810182559082529190208591600202016115b282826142c3565b50506040805160608101825261ffff8086168083529085166020808401829052600092835260d78152848320918352528290205490918201906115f7906001906140f3565b61ffff908116909152600083815260d86020908152604091829020845181548684015196909401516001600160e01b03166401000000000263ffffffff968616620100000263ffffffff1990951691861691909117939093179490941691909117909255841690850180359061166d9087613c6d565b6040805133815261ffff8716602082015242918101919091526001600160a01b0391909116907f5cd1a97d0d6373d1385940f3fa8fdbc61a4904736046f736bdd405d95309549b906060016111ba565b6001600160a01b037f00000000000000000000000000000000000000000000000000000000000000001630036117055760405162461bcd60e51b8152600401610b4c9061410a565b7f00000000000000000000000000000000000000000000000000000000000000006001600160a01b0316611737612bf9565b6001600160a01b03161461175d5760405162461bcd60e51b8152600401610b4c90614156565b61176682612c27565b61177282826001612c50565b5050565b30600090815260016020526040812054611792905b8316831490565b92915050565b61ffff8116600090815260d4602052604090208054606091906117ba906142f9565b80601f01602080910402602001604051908101604052809291908181526020018280546117e6906142f9565b80156118335780601f1061180857610100808354040283529160200191611833565b820191906000526020600020905b81548152906001019060200180831161181657829003601f168201915b50505050509050919050565b60408051808201909152600080825260208201528115801590611863575060d15482105b61187f5760405162461bcd60e51b8152600401610b4c90614282565b60d182815481106118925761189261423f565b60009182526020918290206040805180820190915260029092020180546001600160a01b03168252600101549181019190915292915050565b6000831180156118dc575060d15483105b6118f85760405162461bcd60e51b8152600401610b4c90614282565b600060d1848154811061190d5761190d61423f565b600091825260209182902060408051808201825260029390930290910180546001600160a01b031680845260019091015493830184905290516331a9108f60e11b815260048101939093529092503391636352211e90602401602060405180830381865afa158015611983573d6000803e3d6000fd5b505050506040513d601f19601f820116820180604052508101906119a791906141a2565b6001600160a01b031614806119c057506119c081612f04565b806119cf57506119cf8161306c565b6119eb5760405162461bcd60e51b8152600401610b4c90614217565b600084815260d460205260409020611a0483858361437c565b5083336001600160a01b03167f1562a4ab7dcb478e782dcea2771f85cd6ec0b70a342cf27b9bf9b1f9f37c7a478585604051611a41929190614465565b60405180910390a350505050565b4283606001351115611a935760405162461bcd60e51b815260206004820152600d60248201526c1b9bdd081e595d081d985b1a59609a1b6044820152606401610b4c565b42836080013511611ad05760405162461bcd60e51b8152602060048201526007602482015266195e1c1a5c995960ca1b6044820152606401610b4c565b611aed611ae36060850160408601613c6d565b8460a0013561319c565b6000611b4283838080601f016020809104026020016040519081016040528093929190818152602001838380828437600092019190915250611b3c9250611b379150889050613240565b6132e9565b906132fc565b9050610b1e8482612d9b565b611b5a62020000612be7565b611b765760405162461bcd60e51b8152600401610b4c906140b6565b8060005b81811015610b1e5760d06000858584818110611b9857611b9861423f565b602090810292909201358352508101919091526040016000205460ff161515600103611c5157600060d06000868685818110611bd657611bd661423f565b60209081029290920135835250810191909152604001600020805460ff1916911515919091179055337fa1f2829f3a396e903b6cc2fc4fe84307770e49acb1b78d70e2ae3c798d0faaa8858584818110611c3257611c3261423f565b90506020020135604051611c4891815260200190565b60405180910390a25b80611c5b816142aa565b915050611b7a565b60d58181548110611c7357600080fd5b9060005260206000209060020201600091509050806000018054611c96906142f9565b80601f0160208091040260200160405190810160405280929190818152602001828054611cc2906142f9565b8015611d0f5780601f10611ce457610100808354040283529160200191611d0f565b820191906000526020600020905b815481529060010190602001808311611cf257829003601f168201915b505050600190930154919250506001600160a01b031682565b6000610c2f612bf9565b611d3f600160ff1b612be7565b611d5b5760405162461bcd60e51b8152600401610b4c906140b6565b6117728282611daf33611d83876001600160a01b031660009081526001602052604090205490565b866001600160a01b03929092166000908152600160205260409020546000198084188216189216171690565b613320565b611dc062020000612be7565b611ddc5760405162461bcd60e51b8152600401610b4c906140b6565b8060005b81811015610b1e5760d06000858584818110611dfe57611dfe61423f565b6020908102929092013583525081019190915260400160009081205460ff1615159003611eb857600160d06000868685818110611e3d57611e3d61423f565b60209081029290920135835250810191909152604001600020805460ff1916911515919091179055337fed8f87b92acaa1c71b4bb41b245ded24f3d91c6b5e8981b8f433c1227aaf271c858584818110611e9957611e9961423f565b90506020020135604051611eaf91815260200190565b60405180910390a25b80611ec2816142aa565b915050611de0565b60d154600090610c2f906001906140f3565b611ee862080000612be7565b611f045760405162461bcd60e51b8152600401610b4c906140b6565b600082118015611f15575060d15482105b611f315760405162461bcd60e51b8152600401610b4c90614282565b600082815260d260205260409020546001600160a01b031615611f965760405162461bcd60e51b815260206004820152601c60248201527f746f6b656e206164647265737320697320616c726561647920736574000000006044820152606401610b4c565b600082815260d2602052604080822080546001600160a01b0319166001600160a01b03851690811790915590519091849133917f1a71eb38149f118f9bf5c8a230e584f239a0871b967426bfe661075157ac582f91a45050565b6001600160a01b0382166000908152600160205260408120546120129061178b565b9392505050565b61202562040000612be7565b6120415760405162461bcd60e51b8152600401610b4c906140b6565b60d683836040516120539291906140a6565b9081526040519081900360200190205461ffff16156120a75760405162461bcd60e51b815260206004820152601060248201526f63617465676f7279206578697374732160801b6044820152606401610b4c565b6040805160606020601f86018190040282018101835291810184815260d592829190879087908190850183828082843760009201829052509385525050506001600160a01b03851660209283015283546001810185559381522081519192600202019081906121169082614479565b5060209190910151600191820180546001600160a01b0319166001600160a01b0390921691909117905560d55461214d91906140f3565b60d6848460405161215f9291906140a6565b908152604051908190036020019020805461ffff9290921661ffff1990921691909117905560d554612193906001906140f3565b336001600160a01b03167f8cc81f63b754cb6c484a79c331df3d99927fa4b7c2bdd2b1737bd9e606fd58218585856040516121d093929190614539565b60405180910390a3505050565b60d554600090610c2f906001906140f3565b60008060608161220f6122056020870187613c6d565b8660200135612ec6565b600081815260d8602052604081205491925061ffff90911690036122625760405162461bcd60e51b815260206004820152600a6024820152691b9bdd081b1a5b9ad95960b21b6044820152606401610b4c565b600081815260d8602052604090205460d5805461ffff80841693620100009004169190829081106122955761229561423f565b90600052602060002090600202016000018261ffff1692508161ffff1691508080546122c0906142f9565b80601f01602080910402602001604051908101604052809291908181526020018280546122ec906142f9565b80156123395780601f1061230e57610100808354040283529160200191612339565b820191906000526020600020905b81548152906001019060200180831161231c57829003601f168201915b50505050509050935093509350509193909250565b6040805180820190915260008082526020820152600080606061ffff85161580159061237f575060d15461ffff8616105b61239b5760405162461bcd60e51b8152600401610b4c90614282565b60d18561ffff16815481106123b2576123b261423f565b906000526020600020906002020160d18661ffff16815481106123d7576123d761423f565b600091825260209091206002909102015460d180546001600160a01b0390921691636352211e919061ffff8a169081106124135761241361423f565b9060005260206000209060020201600101546040518263ffffffff1660e01b815260040161244391815260200190565b602060405180830381865afa158015612460573d6000803e3d6000fd5b505050506040513d601f19601f8201168201806040525081019061248491906141a2565b61ffff8716600090815260d2602090815260408083205460d4835292819020815180830190925285546001600160a01b03908116835260019096015492820192909252815490949092169181906124da906142f9565b80601f0160208091040260200160405190810160405280929190818152602001828054612506906142f9565b80156125535780601f1061252857610100808354040283529160200191612553565b820191906000526020600020905b81548152906001019060200180831161253657829003601f168201915b5050505050905093509350935093509193509193565b610cf93082611d32565b600054610100900460ff1661258e5760005460ff1615612592565b303b155b6125f55760405162461bcd60e51b815260206004820152602e60248201527f496e697469616c697a61626c653a20636f6e747261637420697320616c72656160448201526d191e481a5b9a5d1a585b1a5e995960921b6064820152608401610b4c565b600054610100900460ff16158015612617576000805461ffff19166101011790555b61265e6040518060400160405280600c81526020016b48697665526567697374727960a01b815250604051806040016040528060018152602001603160f81b81525061337a565b612667336133bb565b60cc80546001600160a01b038086166001600160a01b03199283161790925560cd805485841690831617905560cb8054928716929091168217905560d18054600190810190915560d580546040805160808101825260109181019182526f125b9d195b1b1a59d95b98d957d413d160821b606082015290815260208101949094526002818101835560009290925283519201027f51858de9989bf7441865ebdadbf7382c8838edbf830f5d86a9a51ac773676dd6019081906127299082614479565b5060209190910151600191820180546001600160a01b0319166001600160a01b0390921691909117905560d55461276091906140f3565b6040516f125b9d195b1b1a59d95b98d957d413d160821b815260d690601001908152604051908190036020019020805461ffff9290921661ffff199092169190911790558015610b1e576000805461ff001916905550505050565b600060ce816127d061149d6020860186613c6d565b815260208101919091526040016000205460ff1692915050565b6127f46001611776565b6128395760405162461bcd60e51b81526020600482015260166024820152751a1a5d994818dc99585d1a5bdb88191a5cd8589b195960521b6044820152606401610b4c565b60cb546001600160a01b0316158015906128615750600083815260d0602052604090205460ff165b61289b5760405162461bcd60e51b815260206004820152600b60248201526a1b9bdd08185b1b1bddd95960aa1b6044820152606401610b4c565b60408051808201825260cb546001600160a01b03168082526020820186905291516331a9108f60e11b81526004810186905290913391636352211e90602401602060405180830381865afa1580156128f7573d6000803e3d6000fd5b505050506040513d601f19601f8201168201806040525081019061291b91906141a2565b6001600160a01b03161480612934575061293481612f04565b8061294357506129438161306c565b61295f5760405162461bcd60e51b8152600401610b4c90614217565b60cb54600090612978906001600160a01b031686612ec6565b600081815260d36020526040902054909150156129c85760405162461bcd60e51b815260206004820152600e60248201526d616c72656164792065786973747360901b6044820152606401610b4c565b600081815260d8602052604090205461ffff1615612a215760405162461bcd60e51b81526020600482015260166024820152751c1bd9081b1a5b9ad95908185cc8185b88185cdcd95d60521b6044820152606401610b4c565b60d1805460018082018355600083905284517f695fb3134ad82c3b8022bc5464edd0bcc9424ef672b52245dcb6ab2374327ce3600290930292830180546001600160a01b0319166001600160a01b0390921691909117905560208501517f695fb3134ad82c3b8022bc5464edd0bcc9424ef672b52245dcb6ab2374327ce4909201919091559054612ab291906140f3565b600082815260d3602052604081209190915560d1548591859160d49190612adb906001906140f3565b81526020019081526020016000209182612af692919061437c565b50602082015160d154612b0b906001906140f3565b8351604080516001600160a01b03909216825242602083015233917fa225649255552ba8a1655788ccea23e48356815f70ad3815e71146239528328b910160405180910390a45050505050565b60d55460009060015b818161ffff161015612bac5761ffff808516600090815260d76020908152604080832093851683529290522054612b989084614565565b925080612ba48161457d565b915050612b61565b5050919050565b60cb5460009060d3908290612bd1906001600160a01b031685612ec6565b8152602001908152602001600020549050919050565b60006117923383611ff0565b3b151590565b7f360894a13ba1a3210667c828492db98dca3e2076cc3735a920a3ca505d382bbc546001600160a01b031690565b612c34600160fe1b612be7565b610cf95760405162461bcd60e51b8152600401610b4c906140b6565b6000612c5a612bf9565b9050612c65846133ef565b600083511180612c725750815b15612c8357612c818484613494565b505b7f4910fdfa16fed3260ed0e7147f7cc6da11a60208b5b9406d12a635614ffd9143805460ff16612d9457805460ff191660011781556040516001600160a01b0383166024820152612d0290869060440160408051601f198184030181529190526020810180516001600160e01b0316631b2ce7f360e11b179052613494565b50805460ff19168155612d13612bf9565b6001600160a01b0316826001600160a01b031614612d8b5760405162461bcd60e51b815260206004820152602f60248201527f45524331393637557067726164653a207570677261646520627265616b73206660448201526e75727468657220757067726164657360881b6064820152608401610b4c565b612d9485613576565b5050505050565b612da762010000612be7565b80612dba5750612dba8162010000611ff0565b612dd65760405162461bcd60e51b8152600401610b4c90614217565b6000612de8610d196020850185613c6d565b600081815260ce602052604090205490915060ff1615612e4a5760405162461bcd60e51b815260206004820152601a60248201527f44505420697320616c72656164792072656769737465726564210000000000006044820152606401610b4c565b600081815260ce60209081526040909120805460ff191660011790558301803590612e759085613c6d565b6001600160a01b0316836001600160a01b03167f84264386e44281cb64e14cb2be504e981e7d28709c283c4bc37cb4589cdf685d42604051612eb991815260200190565b60405180910390a4505050565b604080516001600160a01b03841660208201529081018290526000906060015b60405160208183030381529060405280519060200120905092915050565b60cd546000906001600160a01b0316612f1f57506000919050565b60cd546020830151604051633a90b56960e01b815263ffffffff90911660048201526000916001600160a01b031690633a90b56990602401602060405180830381865afa158015612f74573d6000803e3d6000fd5b505050506040513d601f19601f82011682018060405250810190612f98919061459e565b905080600003612fab5750600092915050565b60cd54602084015160009182916001600160a01b039091169063db6d98df90612fd56001876140f3565b6040516001600160e01b031960e085901b16815263ffffffff9290921660048301526024820152604401606060405180830381865afa15801561301c573d6000803e3d6000fd5b505050506040513d601f19601f8201168201806040525081019061304091906145cb565b92505091508063ffffffff16600014801561306357506001600160a01b03821633145b95945050505050565b60cc546000906001600160a01b031661308757506000919050565b60cc5482516020840151604051637aa87ad160e01b81526000936001600160a01b031692637aa87ad1926130d1926004016001600160a01b03929092168252602082015260400190565b602060405180830381865afa1580156130ee573d6000803e3d6000fd5b505050506040513d601f19601f82011682018060405250810190613112919061459e565b90508015801590612012575060cc546040516331a9108f60e11b81526004810183905233916001600160a01b031690636352211e90602401602060405180830381865afa158015613167573d6000803e3d6000fd5b505050506040513d601f19601f8201168201806040525081019061318b91906141a2565b6001600160a01b0316149392505050565b6001600160a01b038216600090815260cf60205260408120805483929091906131c4836142aa565b91905055146132055760405162461bcd60e51b815260206004820152600d60248201526c696e76616c6964206e6f6e636560981b6044820152606401610b4c565b816001600160a01b03167f2af71f10069c28afc67c3752e87e0e4616a97948d33c8f404a856c0c334b3e0182604051610c2391815260200190565b60007f5e5980812e14d500287e9b3d75ae309eac0fb0d30f0d40d19ea443de698eef0061326c836135b6565b61327c6060850160408601613c6d565b846060013585608001358660a001356040516020016132cc9695949392919095865260208601949094526001600160a01b039290921660408501526060840152608083015260a082015260c00190565b604051602081830303815290604052805190602001209050919050565b60006117926132f6613613565b8361368e565b600080600061330b85856136b5565b9150915061331881613723565b509392505050565b6001600160a01b03831660008181526001602090815260409182902084905581518581529081018490527fe9be537308880e0f56b7d7cfd7abf85f14c4934486d138f848b92a0cbaf659b4910160405180910390a2505050565b600054610100900460ff166133a15760405162461bcd60e51b8152600401610b4c90614607565b815160209283012081519190920120609791909155609855565b600054610100900460ff166133e25760405162461bcd60e51b8152600401610b4c90614607565b610cf98160001980613320565b803b6134535760405162461bcd60e51b815260206004820152602d60248201527f455243313936373a206e657720696d706c656d656e746174696f6e206973206e60448201526c1bdd08184818dbdb9d1c9858dd609a1b6064820152608401610b4c565b7f360894a13ba1a3210667c828492db98dca3e2076cc3735a920a3ca505d382bbc80546001600160a01b0319166001600160a01b0392909216919091179055565b6060823b6134f35760405162461bcd60e51b815260206004820152602660248201527f416464726573733a2064656c65676174652063616c6c20746f206e6f6e2d636f6044820152651b9d1c9858dd60d21b6064820152608401610b4c565b600080846001600160a01b03168460405161350e919061408a565b600060405180830381855af49150503d8060008114613549576040519150601f19603f3d011682016040523d82523d6000602084013e61354e565b606091505b50915091506130638282604051806060016040528060278152602001614669602791396138d9565b61357f816133ef565b6040516001600160a01b038216907fbc7cd75a20ee27fd9adebab32041f755214dbc6bffa90cc0225b39da2e5c2d3b90600090a250565b60007f685dd8e2693cf377e50b3e95f06b61dff4c1705fa19df1071074d64f4e1469eb6135e66020840184613c6d565b604080516020818101949094526001600160a01b03909216908201529083013560608201526080016132cc565b6000610c2f7f8b73c3c69bb8fe3d512ecc4cf759cc79239f7b179b0ffacaa9a75d522b39400f61364260975490565b6098546040805160208101859052908101839052606081018290524660808201523060a082015260009060c0016040516020818303038152906040528051906020012090509392505050565b60405161190160f01b60208201526022810183905260428101829052600090606201612ee6565b60008082516041036136eb5760208301516040840151606085015160001a6136df87828585613912565b9450945050505061371c565b825160400361371457602083015160408401516137098683836139ff565b93509350505061371c565b506000905060025b9250929050565b600081600481111561373757613737614652565b0361373f5750565b600181600481111561375357613753614652565b036137a05760405162461bcd60e51b815260206004820152601860248201527f45434453413a20696e76616c6964207369676e617475726500000000000000006044820152606401610b4c565b60028160048111156137b4576137b4614652565b036138015760405162461bcd60e51b815260206004820152601f60248201527f45434453413a20696e76616c6964207369676e6174757265206c656e677468006044820152606401610b4c565b600381600481111561381557613815614652565b0361386d5760405162461bcd60e51b815260206004820152602260248201527f45434453413a20696e76616c6964207369676e6174757265202773272076616c604482015261756560f01b6064820152608401610b4c565b600481600481111561388157613881614652565b03610cf95760405162461bcd60e51b815260206004820152602260248201527f45434453413a20696e76616c6964207369676e6174757265202776272076616c604482015261756560f01b6064820152608401610b4c565b606083156138e8575081612012565b8251156138f85782518084602001fd5b8160405162461bcd60e51b8152600401610b4c9190613dc1565b6000807f7fffffffffffffffffffffffffffffff5d576e7357a4501ddfe92f46681b20a083111561394957506000905060036139f6565b8460ff16601b1415801561396157508460ff16601c14155b1561397257506000905060046139f6565b6040805160008082526020820180845289905260ff881692820192909252606081018690526080810185905260019060a0016020604051602081039080840390855afa1580156139c6573d6000803e3d6000fd5b5050604051601f1901519150506001600160a01b0381166139ef576000600192509250506139f6565b9150600090505b94509492505050565b6000806001600160ff1b03831660ff84901c601b01613a2087828885613912565b935093505050935093915050565b600060208284031215613a4057600080fd5b5035919050565b803561ffff81168114613a5957600080fd5b919050565b600080600060608486031215613a7357600080fd5b83359250613a8360208501613a47565b9150604084013590509250925092565b634e487b7160e01b600052604160045260246000fd5b600067ffffffffffffffff80841115613ac457613ac4613a93565b604051601f8501601f19908116603f01168101908282118183101715613aec57613aec613a93565b81604052809350858152868686011115613b0557600080fd5b858560208301376000602087830101525050509392505050565b600060208284031215613b3157600080fd5b813567ffffffffffffffff811115613b4857600080fd5b8201601f81018413613b5957600080fd5b613b6884823560208401613aa9565b949350505050565b600060408284031215613b8257600080fd5b50919050565b60008083601f840112613b9a57600080fd5b50813567ffffffffffffffff811115613bb257600080fd5b60208301915083602082850101111561371c57600080fd5b60008060008060808587031215613be057600080fd5b613bea8686613b70565b9350613bf860408601613a47565b9250606085013567ffffffffffffffff811115613c1457600080fd5b613c2087828801613b88565b95989497509550505050565b6001600160a01b0381168114610cf957600080fd5b60008060408385031215613c5457600080fd5b8235613c5f81613c2c565b946020939093013593505050565b600060208284031215613c7f57600080fd5b813561201281613c2c565b600060408284031215613c9c57600080fd5b6120128383613b70565b600080600060808486031215613cbb57600080fd5b613cc58585613b70565b9250613cd360408501613a47565b9150613ce160608501613a47565b90509250925092565b60008060408385031215613cfd57600080fd5b8235613d0881613c2c565b9150602083013567ffffffffffffffff811115613d2457600080fd5b8301601f81018513613d3557600080fd5b613d4485823560208401613aa9565b9150509250929050565b600060208284031215613d6057600080fd5b61201282613a47565b60005b83811015613d84578181015183820152602001613d6c565b83811115610b1e5750506000910152565b60008151808452613dad816020860160208601613d69565b601f01601f19169290920160200192915050565b6020815260006120126020830184613d95565b81516001600160a01b031681526020808301519082015260408101611792565b600080600060408486031215613e0957600080fd5b83359250602084013567ffffffffffffffff811115613e2757600080fd5b613e3386828701613b88565b9497909650939450505050565b600080600083850360e0811215613e5657600080fd5b60c0811215613e6457600080fd5b5083925060c084013567ffffffffffffffff811115613e2757600080fd5b60008060208385031215613e9557600080fd5b823567ffffffffffffffff80821115613ead57600080fd5b818501915085601f830112613ec157600080fd5b813581811115613ed057600080fd5b8660208260051b8501011115613ee557600080fd5b60209290920196919550909350505050565b604081526000613f0a6040830185613d95565b905060018060a01b03831660208301529392505050565b60008060408385031215613f3457600080fd5b823591506020830135613f4681613c2c565b809150509250929050565b600080600060408486031215613f6657600080fd5b833567ffffffffffffffff811115613f7d57600080fd5b613f8986828701613b88565b9094509250506020840135613f9d81613c2c565b809150509250925092565b8381528260208201526060604082015260006130636060830184613d95565b84516001600160a01b03168152602080860151908201526001600160a01b0384811660408301528316606082015260a06080820181905260009061400d90830184613d95565b9695505050505050565b60008060006060848603121561402c57600080fd5b833561403781613c2c565b9250602084013561404781613c2c565b91506040840135613f9d81613c2c565b6000806040838503121561406a57600080fd5b61407383613a47565b915061408160208401613a47565b90509250929050565b6000825161409c818460208701613d69565b9190910192915050565b8183823760009101908152919050565b6020808252600d908201526c1858d8d95cdcc819195b9a5959609a1b604082015260600190565b634e487b7160e01b600052601160045260246000fd5b600082821015614105576141056140dd565b500390565b6020808252602c908201527f46756e6374696f6e206d7573742062652063616c6c6564207468726f7567682060408201526b19195b1959d85d1958d85b1b60a21b606082015260800190565b6020808252602c908201527f46756e6374696f6e206d7573742062652063616c6c6564207468726f7567682060408201526b6163746976652070726f787960a01b606082015260800190565b6000602082840312156141b457600080fd5b815161201281613c2c565b6000604082840312156141d157600080fd5b6040516040810181811067ffffffffffffffff821117156141f4576141f4613a93565b604052823561420281613c2c565b81526020928301359281019290925250919050565b6020808252600e908201526d1b9bdd08185d5d1a1bdc9a5e995960921b604082015260600190565b634e487b7160e01b600052603260045260246000fd5b634e487b7160e01b600052603160045260246000fd5b60008161427a5761427a6140dd565b506000190190565b6020808252600e908201526d1a5b9d985b1a59081a1a5d99525960921b604082015260600190565b6000600182016142bc576142bc6140dd565b5060010190565b81356142ce81613c2c565b81546001600160a01b0319166001600160a01b03919091161781556020919091013560019190910155565b600181811c9082168061430d57607f821691505b602082108103613b8257634e487b7160e01b600052602260045260246000fd5b601f82111561437757600081815260208120601f850160051c810160208610156143545750805b601f850160051c820191505b8181101561437357828155600101614360565b5050505b505050565b67ffffffffffffffff83111561439457614394613a93565b6143a8836143a283546142f9565b8361432d565b6000601f8411600181146143dc57600085156143c45750838201355b600019600387901b1c1916600186901b178355612d94565b600083815260209020601f19861690835b8281101561440d57868501358255602094850194600190920191016143ed565b508682101561442a5760001960f88860031b161c19848701351681555b505060018560011b0183555050505050565b81835281816020850137506000828201602090810191909152601f909101601f19169091010190565b602081526000613b6860208301848661443c565b815167ffffffffffffffff81111561449357614493613a93565b6144a7816144a184546142f9565b8461432d565b602080601f8311600181146144dc57600084156144c45750858301515b600019600386901b1c1916600185901b178555614373565b600085815260208120601f198616915b8281101561450b578886015182559484019460019091019084016144ec565b50858210156145295787850151600019600388901b60f8161c191681555b5050505050600190811b01905550565b60408152600061454d60408301858761443c565b905060018060a01b0383166020830152949350505050565b60008219821115614578576145786140dd565b500190565b600061ffff808316818103614594576145946140dd565b6001019392505050565b6000602082840312156145b057600080fd5b5051919050565b805163ffffffff81168114613a5957600080fd5b6000806000606084860312156145e057600080fd5b83516145eb81613c2c565b92506145f9602085016145b7565b9150613ce1604085016145b7565b6020808252602b908201527f496e697469616c697a61626c653a20636f6e7472616374206973206e6f74206960408201526a6e697469616c697a696e6760a81b606082015260800190565b634e487b7160e01b600052602160045260246000fdfe416464726573733a206c6f772d6c6576656c2064656c65676174652063616c6c206661696c6564a264697066735822122048d413f4fc167f066b7e5a15857cdedb28be6d205589b8c2ea5d530d0a57d81f64736f6c634300080f0033",
  "devdoc": {
    "kind": "dev",
    "methods": {
      "addCategory(string,address)": {
        "params": {
          "allowedCollection": "nft collection linking permitted within specific category.      If allowedCollection is ZERO_ADDRESS, any NFT collection may      link within that category.",
          "categoryName": "category name"
        }
      },
      "createHive(uint256,string)": {
        "params": {
          "hiveURI": "hive URI pointing to some off-chain resource",
          "podId": "Level 5 AI PodId"
        }
      },
      "delistPods(uint256[])": {
        "params": {
          "podIds": "array of AI Pod IDs do delist"
        }
      },
      "eip712RegisterAsDPT(((address,uint256),address,uint256,uint256,uint256),bytes)": {
        "params": {
          "req": "The RegisterAssetRequest struct containing request details.",
          "signature": "The signature of the request."
        }
      },
      "fastForwardTheNonce(address,uint256)": {
        "details": "Implementation must not allow to decrease the nonce, only increasing (rewinding)      must be possible",
        "params": {
          "_issuer": "the issuer address to rewind the nonce for",
          "_nonce": "the nonce value to rewind to"
        }
      },
      "features()": {
        "details": "Effectively reads userRoles role for the contract itself",
        "returns": {
          "_0": "256-bit bitmask of the features enabled"
        }
      },
      "getCategoryIndex(string)": {
        "params": {
          "categoryName": "category name"
        },
        "returns": {
          "categoryId": "category ID (index)"
        }
      },
      "getHiveCreatorPod(uint256)": {
        "params": {
          "hiveId": "ID of the Hive to query for"
        },
        "returns": {
          "pod": "AI-pod (ERC721 address, ERC721 ID)"
        }
      },
      "getHiveDetails(uint16)": {
        "params": {
          "hiveId": "ID of the Hive to query for"
        },
        "returns": {
          "hiveOwner": "owner of AI-Pod cum hive",
          "hiveTokenAddr": "address of the ERC20 token representing the economy of the Hive",
          "hiveUri": "Hive metadata URL",
          "pod": "AI-Pod details asossiated with hive"
        }
      },
      "getHiveId(uint256)": {
        "params": {
          "podId": "AI Pod ID"
        },
        "returns": {
          "hiveId": "Hive ID"
        }
      },
      "getHiveToken(uint256)": {
        "params": {
          "hiveId": "ID of the Hive to query for"
        },
        "returns": {
          "tokenAddr": "address of the ERC20 token representing the economy of the Hive"
        }
      },
      "getHiveURI(uint16)": {
        "params": {
          "hiveId": "ID of the Hive to query for"
        },
        "returns": {
          "hiveUri": "Hive URL"
        }
      },
      "getImplementation()": {
        "returns": {
          "_0": "the current implementation address"
        }
      },
      "getLinkedAssetDetails((address,uint256))": {
        "details": "Zero return values indicate the asset is not linked",
        "params": {
          "asset": "an NFT (ERC721 address, ERC721 ID)"
        },
        "returns": {
          "category": "category where the asset is registered within a Hive in string value",
          "categoryId": "category ID where the asset is registered within a Hive, or zero if not linked",
          "hiveId": "Hive ID where asset is linked to, zero if it is not linked"
        }
      },
      "getNonce(address)": {
        "params": {
          "client": "the client address to get the nonce for"
        },
        "returns": {
          "nonce": "current (unused) nonce; incremented by one after      each successful execution of the `registerDPTRequest` function"
        }
      },
      "getNumOfAssetsLinkedWithHive(uint16)": {
        "params": {
          "hiveId": "Hive ID to query"
        },
        "returns": {
          "numOfAssets": "number of assets linked with the Hive"
        }
      },
      "getNumOfAssetsLinkedWithHive(uint16,uint16)": {
        "params": {
          "categoryId": "category ID (index)",
          "hiveId": "Hive ID to query"
        },
        "returns": {
          "numOfAssets": "number of assets linked with the Hive"
        }
      },
      "getNumOfGlobalCategories()": {
        "returns": {
          "noOfCategories": "Total number of categories"
        }
      },
      "getNumOfHives()": {
        "returns": {
          "noOfHives": "Total number of Hives"
        }
      },
      "getRole(address)": {
        "details": "Having a simple getter instead of making the mapping public      allows enforcing the encapsulation of the mapping and protects from      writing to it directly in the inheriting smart contracts",
        "params": {
          "operator": "address of a user to read permissions for,      or self address to read global features of the smart contract"
        }
      },
      "isAssetLinked((address,uint256))": {
        "params": {
          "asset": "an NFT (ERC721 address, ERC721 ID)"
        },
        "returns": {
          "status": "true if asset is linked, false otherwise"
        }
      },
      "isDPTRegistered((address,uint256))": {
        "params": {
          "_dpt": "The TradeableShares.SharesSubject struct representing the DPT."
        },
        "returns": {
          "status": "True if the DPT is registered, false otherwise."
        }
      },
      "isFeatureEnabled(uint256)": {
        "params": {
          "required": "set of features to check against"
        },
        "returns": {
          "_0": "true if all the features requested are enabled, false otherwise"
        }
      },
      "isOperatorInRole(address,uint256)": {
        "params": {
          "operator": "address of the user to check role for",
          "required": "set of permissions (role) to check"
        },
        "returns": {
          "_0": "true if all the permissions requested are enabled, false otherwise"
        }
      },
      "isPodWhitelisted(uint256)": {
        "params": {
          "podId": "AI Pod ID to query"
        }
      },
      "isSenderInRole(uint256)": {
        "details": "Used in smart contracts only. Off-chain clients should use `isOperatorInRole`.",
        "params": {
          "required": "set of permissions (role) to check against"
        },
        "returns": {
          "_0": "true if all the permissions requested are enabled, false otherwise"
        }
      },
      "linkAsset((address,uint256),uint16,string)": {
        "params": {
          "asset": "an NFT (ERC721 address, ERC721 ID)",
          "categoryName": "asset category name within the Hive",
          "hiveId": "ID of the hive to join"
        }
      },
      "linkAsset((address,uint256),uint16,uint16)": {
        "params": {
          "asset": "an NFT (ERC721 address, ERC721 ID)",
          "categoryId": "asset category ID within the Hive",
          "hiveId": "ID of the hive to join"
        }
      },
      "postConstruct(address,address,address)": {
        "details": "\"Constructor replacement\" for upgradeable, must be execute immediately after proxy deployment      see https://docs.openzeppelin.com/upgrades-plugins/1.x/writing-upgradeable#initializers"
      },
      "registerAsDPT((address,uint256))": {
        "params": {
          "_dpt": "The TradeableShares.SharesSubject struct representing the DPT."
        }
      },
      "setHiveTokenAddress(uint256,address)": {
        "params": {
          "hiveId": "Hive ID",
          "tokenAddress": "ERC20 token address to set"
        }
      },
      "unlinkAsset((address,uint256))": {
        "params": {
          "asset": "an NFT (ERC721 address, ERC721 ID)"
        }
      },
      "updateFeatures(uint256)": {
        "details": "Requires transaction sender to have `ROLE_ACCESS_MANAGER` permissionFunction is left for backward compatibility with older versions",
        "params": {
          "_mask": "bitmask representing a set of features to enable/disable"
        }
      },
      "updateHiveURI(uint256,string)": {
        "params": {
          "hiveId": "Hive ID",
          "hiveURI": "Hive URI"
        }
      },
      "updateRole(address,uint256)": {
        "details": "Setting role to zero is equivalent to removing an all permissionsSetting role to `FULL_PRIVILEGES_MASK` is equivalent to      copying senders' permissions (role) to the userRequires transaction sender to have `ROLE_ACCESS_MANAGER` permission",
        "params": {
          "operator": "address of a user to alter permissions for,       or self address to alter global features of the smart contract",
          "role": "bitmask representing a set of permissions to      enable/disable for a user specified"
        }
      },
      "upgradeTo(address)": {
        "details": "Upgrade the implementation of the proxy to `newImplementation`. Calls {_authorizeUpgrade}. Emits an {Upgraded} event."
      },
      "upgradeToAndCall(address,bytes)": {
        "details": "Upgrade the implementation of the proxy to `newImplementation`, and subsequently execute the function call encoded in `data`. Calls {_authorizeUpgrade}. Emits an {Upgraded} event."
      },
      "whitelistPods(uint256[])": {
        "params": {
          "podIds": "array of level 5 AI Pod IDs"
        }
      }
    },
    "stateVariables": {
      "FEATURE_ALLOW_ASSET_LINKING": {
        "details": "Feature FEATURE_ALLOW_ASSET_LINKING must be enabled      as a prerequisite for `linkAsset()` function to succeed"
      },
      "FEATURE_ALLOW_ASSET_UNLINKING": {
        "details": "Feature FEATURE_ALLOW_ASSET_UNLINKING must be enabled      as a prerequisite for `unlinkAsset()` function to succeed"
      },
      "FEATURE_ALLOW_HIVE_CREATION": {
        "details": "Feature FEATURE_ALLOW_HIVE_CREATION must be enabled      as a prerequisite for `launchHive()` function to succeed"
      },
      "ROLE_CATEGORY_MANAGER": {
        "details": "Role ROLE_CATEGORY_MANAGER is required to execute `addCategory` functions"
      },
      "ROLE_DPT_REGISTRAR": {
        "details": "Role ROLE_SHARES_REGISTRAR is required to execute `registerDPTRequest` functions"
      },
      "ROLE_HIVE_TOKEN_MANAGER": {
        "details": "Role ROLE_HIVE_TOKEN_MANAGER is required to execute `updateHiveToken` functions"
      },
      "ROLE_POD_WHITELIST_MANAGER": {
        "details": "Role ROLE_POD_WHITELIST_MANAGER is required to execute `whitelistPods` & 'delistPods' functions"
      },
      "assetCatalogue": {
        "details": "Keeps track of the bound assets to the Hive as a categories catalog      Maps Hive ID => Category ID => Enumerable of the linked assets"
      },
      "categoryIndex": {
        "details": "Keeps track of the linked assets categories      Maps Category Name => category ID / Index"
      },
      "dptLinkStatus": {
        "details": "Mapping to store the linking status of DPTs identified by their bytes32 representation."
      },
      "globalCategories": {
        "details": "Enumerable of all categories. Category index in the array is a Category ID"
      },
      "hiveIndex": {
        "details": "Keeps track of which AI Pods created which Hives      Maps keccak256(AI Pod address, ID) => Hive ID"
      },
      "hiveToken": {
        "details": "Keeps track of the Hives' ERC20 economy tokens      Maps Hive ID => Hive economy ERC20 token address"
      },
      "hiveURI": {
        "details": "Keeps track of the Hive URIs      Maps Hive ID => Hive URI"
      },
      "hives": {
        "details": "Enumerable of all the Hives. Hive index in the array is a Hive ID."
      },
      "iNftContract": {
        "details": "iNFT Linker contract defined by `iNftContract` (effectively immutable)"
      },
      "linkedAssets": {
        "details": "Keeps track of the assets linked to the Hive      Maps an asset keccak256(ERC721 address, ID) => (Hive ID, Category ID, asset Index in `assetBindings`)"
      },
      "nonces": {
        "details": "Keeps track of the used nonces for every possible issuer      Maps address => number of used nonces"
      },
      "personalityContract": {
        "details": "AI Personality contract defined by `personalityContract` (effectively immutable)"
      },
      "podStakingContract": {
        "details": "AI Personality staking contract defined by `podStakingContract` (effectively immutable)"
      },
      "whitelistedPods": {
        "details": "Keeps track of Level 5 AI Pods      maps AI Pod ID => is Level 5?"
      }
    },
    "title": "Hive Registry (Implementation, V1)",
    "version": 1
  },
  "userdoc": {
    "kind": "user",
    "methods": {
      "FEATURE_ALLOW_ASSET_LINKING()": {
        "notice": "Enables asset linking with hives"
      },
      "FEATURE_ALLOW_ASSET_UNLINKING()": {
        "notice": "Enables asset unlink from hives"
      },
      "FEATURE_ALLOW_HIVE_CREATION()": {
        "notice": "Enables hive creation"
      },
      "ROLE_ACCESS_MANAGER()": {
        "notice": "Access manager is responsible for assigning the roles to users,      enabling/disabling global features of the smart contractAccess manager can add, remove and update user roles,      remove and update global features"
      },
      "ROLE_CATEGORY_MANAGER()": {
        "notice": "allows to add new asset global category to hive registry"
      },
      "ROLE_DPT_REGISTRAR()": {
        "notice": "registers DPTs with Hive registry on other behalf using meta-tx"
      },
      "ROLE_HIVE_TOKEN_MANAGER()": {
        "notice": "allows to set ERC20 token address associated with particular hive"
      },
      "ROLE_POD_WHITELIST_MANAGER()": {
        "notice": "allows to update pods of whitelisted list which are allowed to create hive"
      },
      "ROLE_UPGRADE_MANAGER()": {
        "notice": "Upgrade manager is responsible for smart contract upgrades,      see https://docs.openzeppelin.com/contracts/4.x/api/proxy#UUPSUpgradeable      see https://docs.openzeppelin.com/contracts/4.x/upgradeable"
      },
      "addCategory(string,address)": {
        "notice": "Add global category and assign it an index"
      },
      "createHive(uint256,string)": {
        "notice": "Creates a Hive. Available only for level 5 AI Pods"
      },
      "delistPods(uint256[])": {
        "notice": "Blacklists the AI Pods"
      },
      "eip712RegisterAsDPT(((address,uint256),address,uint256,uint256,uint256),bytes)": {
        "notice": "Registers an NFT as DPT by the request with a valid signature."
      },
      "fastForwardTheNonce(address,uint256)": {
        "notice": "Fast forward the nonce for the issuer specified, used to      discard one or more signed requests to `registerDPTRequest`"
      },
      "features()": {
        "notice": "Retrieves globally set of features enabled"
      },
      "getCategoryIndex(string)": {
        "notice": "Resolve category ID (index) by its name"
      },
      "getHiveCreatorPod(uint256)": {
        "notice": "Finds which AI Pod created the Hive"
      },
      "getHiveDetails(uint16)": {
        "notice": "Finds the all details associated with Hive"
      },
      "getHiveId(uint256)": {
        "notice": "Resolve Hive ID where the given asset is linked; an asset can also be an AI Pod      which created the Hive"
      },
      "getHiveToken(uint256)": {
        "notice": "Finds the economy ERC20 token address assigned to the Hive"
      },
      "getHiveURI(uint16)": {
        "notice": "Finds the URI of the given Hive"
      },
      "getImplementation()": {
        "notice": "Returns an address of the implementation smart contract,      see ERC1967Upgrade._getImplementation()"
      },
      "getLinkedAssetDetails((address,uint256))": {
        "notice": "Gets the info of the linked asset, the hiveID and categoryId where it is linked to"
      },
      "getNonce(address)": {
        "notice": "Gets current (unused) nonce for the given client address;      unused nonce is required to build the RegisterDPTRequest and sign it      nonces increment by one after each use"
      },
      "getNumOfAssetsLinkedWithHive(uint16)": {
        "notice": "How many assets are linked with the given Hive"
      },
      "getNumOfAssetsLinkedWithHive(uint16,uint16)": {
        "notice": "How many assets are linked with the given Hive in the give category"
      },
      "getNumOfGlobalCategories()": {
        "notice": "Total number of asset categories known to the Hives"
      },
      "getNumOfHives()": {
        "notice": "Total number of Hives registered within the registry"
      },
      "getRole(address)": {
        "notice": "Reads the permissions (role) for a given user from the `userRoles` mapping      (privileged addresses with defined roles/permissions)In the context of ERC20/ERC721 tokens these can be permissions to      allow minting or burning tokens, transferring on behalf and so on"
      },
      "isAssetLinked((address,uint256))": {
        "notice": "Checks whether asset is linked to any Hive"
      },
      "isDPTRegistered((address,uint256))": {
        "notice": "Checks whether a DPT is already registered."
      },
      "isFeatureEnabled(uint256)": {
        "notice": "Checks if requested set of features is enabled globally on the contract"
      },
      "isOperatorInRole(address,uint256)": {
        "notice": "Checks if operator has all the permissions (role) required"
      },
      "isPodWhitelisted(uint256)": {
        "notice": "Checks whether the give AI Pod is whitelisted, that is a Level 5      pod capable of creating a Hive (or already having a Hive)"
      },
      "isSenderInRole(uint256)": {
        "notice": "Checks if transaction sender `msg.sender` has all the permissions required"
      },
      "linkAsset((address,uint256),uint16,string)": {
        "notice": "Links an asset (NFT) to the Hive under certain category"
      },
      "linkAsset((address,uint256),uint16,uint16)": {
        "notice": "Links an asset (NFT) to the Hive under certain category"
      },
      "registerAsDPT((address,uint256))": {
        "notice": "Registers an NFT as DPT directly by the authorizer."
      },
      "setHiveTokenAddress(uint256,address)": {
        "notice": "Sets ERC20 Hive economy token address; can be done only once"
      },
      "totalNumOfAssetsLinked()": {
        "notice": "Total number of assets linked (counter)"
      },
      "unlinkAsset((address,uint256))": {
        "notice": "Unlinks an asset (NFT) from the Hive"
      },
      "updateFeatures(uint256)": {
        "notice": "Updates set of the globally enabled features (`features`),      taking into account sender's permissions"
      },
      "updateHiveURI(uint256,string)": {
        "notice": "Updates Hive URI"
      },
      "updateRole(address,uint256)": {
        "notice": "Updates set of permissions (role) for a given user,      taking into account sender's permissions."
      },
      "whitelistPods(uint256[])": {
        "notice": "Whitelists the AI Pods, that is marks podIds as level 5 pods,      meaning these pods become capable of launching Hives"
      }
    },
    "notice": "see HiveRegistry",
    "version": 1
  },
  "storageLayout": {
    "storage": [
      {
        "astId": 2096,
        "contract": "contracts/bonding_curves/HiveRegistryV1.sol:HiveRegistryV1",
        "label": "_initialized",
        "offset": 0,
        "slot": "0",
        "type": "t_bool"
      },
      {
        "astId": 2099,
        "contract": "contracts/bonding_curves/HiveRegistryV1.sol:HiveRegistryV1",
        "label": "_initializing",
        "offset": 1,
        "slot": "0",
        "type": "t_bool"
      },
      {
        "astId": 37174,
        "contract": "contracts/bonding_curves/HiveRegistryV1.sol:HiveRegistryV1",
        "label": "userRoles",
        "offset": 0,
        "slot": "1",
        "type": "t_mapping(t_address,t_uint256)"
      },
      {
        "astId": 37179,
        "contract": "contracts/bonding_curves/HiveRegistryV1.sol:HiveRegistryV1",
        "label": "__gap",
        "offset": 0,
        "slot": "2",
        "type": "t_array(t_uint256)49_storage"
      },
      {
        "astId": 2078,
        "contract": "contracts/bonding_curves/HiveRegistryV1.sol:HiveRegistryV1",
        "label": "__gap",
        "offset": 0,
        "slot": "51",
        "type": "t_array(t_uint256)50_storage"
      },
      {
        "astId": 2273,
        "contract": "contracts/bonding_curves/HiveRegistryV1.sol:HiveRegistryV1",
        "label": "__gap",
        "offset": 0,
        "slot": "101",
        "type": "t_array(t_uint256)50_storage"
      },
      {
        "astId": 3225,
        "contract": "contracts/bonding_curves/HiveRegistryV1.sol:HiveRegistryV1",
        "label": "_HASHED_NAME",
        "offset": 0,
        "slot": "151",
        "type": "t_bytes32"
      },
      {
        "astId": 3227,
        "contract": "contracts/bonding_curves/HiveRegistryV1.sol:HiveRegistryV1",
        "label": "_HASHED_VERSION",
        "offset": 0,
        "slot": "152",
        "type": "t_bytes32"
      },
      {
        "astId": 3364,
        "contract": "contracts/bonding_curves/HiveRegistryV1.sol:HiveRegistryV1",
        "label": "__gap",
        "offset": 0,
        "slot": "153",
        "type": "t_array(t_uint256)50_storage"
      },
      {
        "astId": 9596,
        "contract": "contracts/bonding_curves/HiveRegistryV1.sol:HiveRegistryV1",
        "label": "personalityContract",
        "offset": 0,
        "slot": "203",
        "type": "t_address"
      },
      {
        "astId": 9599,
        "contract": "contracts/bonding_curves/HiveRegistryV1.sol:HiveRegistryV1",
        "label": "iNftContract",
        "offset": 0,
        "slot": "204",
        "type": "t_address"
      },
      {
        "astId": 9602,
        "contract": "contracts/bonding_curves/HiveRegistryV1.sol:HiveRegistryV1",
        "label": "podStakingContract",
        "offset": 0,
        "slot": "205",
        "type": "t_address"
      },
      {
        "astId": 9607,
        "contract": "contracts/bonding_curves/HiveRegistryV1.sol:HiveRegistryV1",
        "label": "dptLinkStatus",
        "offset": 0,
        "slot": "206",
        "type": "t_mapping(t_bytes32,t_bool)"
      },
      {
        "astId": 9612,
        "contract": "contracts/bonding_curves/HiveRegistryV1.sol:HiveRegistryV1",
        "label": "nonces",
        "offset": 0,
        "slot": "207",
        "type": "t_mapping(t_address,t_uint256)"
      },
      {
        "astId": 9617,
        "contract": "contracts/bonding_curves/HiveRegistryV1.sol:HiveRegistryV1",
        "label": "whitelistedPods",
        "offset": 0,
        "slot": "208",
        "type": "t_mapping(t_uint256,t_bool)"
      },
      {
        "astId": 9622,
        "contract": "contracts/bonding_curves/HiveRegistryV1.sol:HiveRegistryV1",
        "label": "hives",
        "offset": 0,
        "slot": "209",
        "type": "t_array(t_struct(SharesSubject)14778_storage)dyn_storage"
      },
      {
        "astId": 9627,
        "contract": "contracts/bonding_curves/HiveRegistryV1.sol:HiveRegistryV1",
        "label": "hiveToken",
        "offset": 0,
        "slot": "210",
        "type": "t_mapping(t_uint256,t_address)"
      },
      {
        "astId": 9632,
        "contract": "contracts/bonding_curves/HiveRegistryV1.sol:HiveRegistryV1",
        "label": "hiveIndex",
        "offset": 0,
        "slot": "211",
        "type": "t_mapping(t_bytes32,t_uint256)"
      },
      {
        "astId": 9637,
        "contract": "contracts/bonding_curves/HiveRegistryV1.sol:HiveRegistryV1",
        "label": "hiveURI",
        "offset": 0,
        "slot": "212",
        "type": "t_mapping(t_uint256,t_string_storage)"
      },
      {
        "astId": 9642,
        "contract": "contracts/bonding_curves/HiveRegistryV1.sol:HiveRegistryV1",
        "label": "globalCategories",
        "offset": 0,
        "slot": "213",
        "type": "t_array(t_struct(CategoryInfo)9232_storage)dyn_storage"
      },
      {
        "astId": 9647,
        "contract": "contracts/bonding_curves/HiveRegistryV1.sol:HiveRegistryV1",
        "label": "categoryIndex",
        "offset": 0,
        "slot": "214",
        "type": "t_mapping(t_string_memory_ptr,t_uint16)"
      },
      {
        "astId": 9656,
        "contract": "contracts/bonding_curves/HiveRegistryV1.sol:HiveRegistryV1",
        "label": "assetCatalogue",
        "offset": 0,
        "slot": "215",
        "type": "t_mapping(t_uint256,t_mapping(t_uint16,t_array(t_struct(SharesSubject)14778_storage)dyn_storage))"
      },
      {
        "astId": 9662,
        "contract": "contracts/bonding_curves/HiveRegistryV1.sol:HiveRegistryV1",
        "label": "linkedAssets",
        "offset": 0,
        "slot": "216",
        "type": "t_mapping(t_bytes32,t_struct(AssetLinkDetails)9225_storage)"
      },
      {
        "astId": 9665,
        "contract": "contracts/bonding_curves/HiveRegistryV1.sol:HiveRegistryV1",
        "label": "totalNumOfAssetsLinked",
        "offset": 0,
        "slot": "217",
        "type": "t_uint256"
      }
    ],
    "types": {
      "t_address": {
        "encoding": "inplace",
        "label": "address",
        "numberOfBytes": "20"
      },
      "t_array(t_struct(CategoryInfo)9232_storage)dyn_storage": {
        "base": "t_struct(CategoryInfo)9232_storage",
        "encoding": "dynamic_array",
        "label": "struct HiveRegistry.CategoryInfo[]",
        "numberOfBytes": "32"
      },
      "t_array(t_struct(SharesSubject)14778_storage)dyn_storage": {
        "base": "t_struct(SharesSubject)14778_storage",
        "encoding": "dynamic_array",
        "label": "struct TradeableShares.SharesSubject[]",
        "numberOfBytes": "32"
      },
      "t_array(t_uint256)49_storage": {
        "base": "t_uint256",
        "encoding": "inplace",
        "label": "uint256[49]",
        "numberOfBytes": "1568"
      },
      "t_array(t_uint256)50_storage": {
        "base": "t_uint256",
        "encoding": "inplace",
        "label": "uint256[50]",
        "numberOfBytes": "1600"
      },
      "t_bool": {
        "encoding": "inplace",
        "label": "bool",
        "numberOfBytes": "1"
      },
      "t_bytes32": {
        "encoding": "inplace",
        "label": "bytes32",
        "numberOfBytes": "32"
      },
      "t_mapping(t_address,t_uint256)": {
        "encoding": "mapping",
        "key": "t_address",
        "label": "mapping(address => uint256)",
        "numberOfBytes": "32",
        "value": "t_uint256"
      },
      "t_mapping(t_bytes32,t_bool)": {
        "encoding": "mapping",
        "key": "t_bytes32",
        "label": "mapping(bytes32 => bool)",
        "numberOfBytes": "32",
        "value": "t_bool"
      },
      "t_mapping(t_bytes32,t_struct(AssetLinkDetails)9225_storage)": {
        "encoding": "mapping",
        "key": "t_bytes32",
        "label": "mapping(bytes32 => struct HiveRegistry.AssetLinkDetails)",
        "numberOfBytes": "32",
        "value": "t_struct(AssetLinkDetails)9225_storage"
      },
      "t_mapping(t_bytes32,t_uint256)": {
        "encoding": "mapping",
        "key": "t_bytes32",
        "label": "mapping(bytes32 => uint256)",
        "numberOfBytes": "32",
        "value": "t_uint256"
      },
      "t_mapping(t_string_memory_ptr,t_uint16)": {
        "encoding": "mapping",
        "key": "t_string_memory_ptr",
        "label": "mapping(string => uint16)",
        "numberOfBytes": "32",
        "value": "t_uint16"
      },
      "t_mapping(t_uint16,t_array(t_struct(SharesSubject)14778_storage)dyn_storage)": {
        "encoding": "mapping",
        "key": "t_uint16",
        "label": "mapping(uint16 => struct TradeableShares.SharesSubject[])",
        "numberOfBytes": "32",
        "value": "t_array(t_struct(SharesSubject)14778_storage)dyn_storage"
      },
      "t_mapping(t_uint256,t_address)": {
        "encoding": "mapping",
        "key": "t_uint256",
        "label": "mapping(uint256 => address)",
        "numberOfBytes": "32",
        "value": "t_address"
      },
      "t_mapping(t_uint256,t_bool)": {
        "encoding": "mapping",
        "key": "t_uint256",
        "label": "mapping(uint256 => bool)",
        "numberOfBytes": "32",
        "value": "t_bool"
      },
      "t_mapping(t_uint256,t_mapping(t_uint16,t_array(t_struct(SharesSubject)14778_storage)dyn_storage))": {
        "encoding": "mapping",
        "key": "t_uint256",
        "label": "mapping(uint256 => mapping(uint16 => struct TradeableShares.SharesSubject[]))",
        "numberOfBytes": "32",
        "value": "t_mapping(t_uint16,t_array(t_struct(SharesSubject)14778_storage)dyn_storage)"
      },
      "t_mapping(t_uint256,t_string_storage)": {
        "encoding": "mapping",
        "key": "t_uint256",
        "label": "mapping(uint256 => string)",
        "numberOfBytes": "32",
        "value": "t_string_storage"
      },
      "t_string_memory_ptr": {
        "encoding": "bytes",
        "label": "string",
        "numberOfBytes": "32"
      },
      "t_string_storage": {
        "encoding": "bytes",
        "label": "string",
        "numberOfBytes": "32"
      },
      "t_struct(AssetLinkDetails)9225_storage": {
        "encoding": "inplace",
        "label": "struct HiveRegistry.AssetLinkDetails",
        "members": [
          {
            "astId": 9218,
            "contract": "contracts/bonding_curves/HiveRegistryV1.sol:HiveRegistryV1",
            "label": "hiveId",
            "offset": 0,
            "slot": "0",
            "type": "t_uint16"
          },
          {
            "astId": 9221,
            "contract": "contracts/bonding_curves/HiveRegistryV1.sol:HiveRegistryV1",
            "label": "categoryId",
            "offset": 2,
            "slot": "0",
            "type": "t_uint16"
          },
          {
            "astId": 9224,
            "contract": "contracts/bonding_curves/HiveRegistryV1.sol:HiveRegistryV1",
            "label": "assetIndex",
            "offset": 4,
            "slot": "0",
            "type": "t_uint224"
          }
        ],
        "numberOfBytes": "32"
      },
      "t_struct(CategoryInfo)9232_storage": {
        "encoding": "inplace",
        "label": "struct HiveRegistry.CategoryInfo",
        "members": [
          {
            "astId": 9228,
            "contract": "contracts/bonding_curves/HiveRegistryV1.sol:HiveRegistryV1",
            "label": "category",
            "offset": 0,
            "slot": "0",
            "type": "t_string_storage"
          },
          {
            "astId": 9231,
            "contract": "contracts/bonding_curves/HiveRegistryV1.sol:HiveRegistryV1",
            "label": "allowedCollection",
            "offset": 0,
            "slot": "1",
            "type": "t_address"
          }
        ],
        "numberOfBytes": "64"
      },
      "t_struct(SharesSubject)14778_storage": {
        "encoding": "inplace",
        "label": "struct TradeableShares.SharesSubject",
        "members": [
          {
            "astId": 14774,
            "contract": "contracts/bonding_curves/HiveRegistryV1.sol:HiveRegistryV1",
            "label": "tokenAddress",
            "offset": 0,
            "slot": "0",
            "type": "t_address"
          },
          {
            "astId": 14777,
            "contract": "contracts/bonding_curves/HiveRegistryV1.sol:HiveRegistryV1",
            "label": "tokenId",
            "offset": 0,
            "slot": "1",
            "type": "t_uint256"
          }
        ],
        "numberOfBytes": "64"
      },
      "t_uint16": {
        "encoding": "inplace",
        "label": "uint16",
        "numberOfBytes": "2"
      },
      "t_uint224": {
        "encoding": "inplace",
        "label": "uint224",
        "numberOfBytes": "28"
      },
      "t_uint256": {
        "encoding": "inplace",
        "label": "uint256",
        "numberOfBytes": "32"
      }
    }
  }
}